{
  "contractName": "NodeRegistryAPI",
  "abi": [
    {
      "constant": false,
      "inputs": [],
      "name": "getContractDirectory",
      "outputs": [
        {
          "name": "",
          "type": "address"
        }
      ],
      "payable": false,
      "stateMutability": "nonpayable",
      "type": "function"
    },
    {
      "constant": true,
      "inputs": [
        {
          "name": "",
          "type": "address"
        },
        {
          "name": "",
          "type": "uint256"
        }
      ],
      "name": "nodesPerAccount",
      "outputs": [
        {
          "name": "",
          "type": "bytes32"
        }
      ],
      "payable": false,
      "stateMutability": "view",
      "type": "function"
    },
    {
      "constant": true,
      "inputs": [],
      "name": "owner",
      "outputs": [
        {
          "name": "",
          "type": "address"
        }
      ],
      "payable": false,
      "stateMutability": "view",
      "type": "function"
    },
    {
      "constant": false,
      "inputs": [
        {
          "name": "_contractDirectory",
          "type": "address"
        }
      ],
      "name": "setContractDirectory",
      "outputs": [],
      "payable": false,
      "stateMutability": "nonpayable",
      "type": "function"
    },
    {
      "constant": true,
      "inputs": [
        {
          "name": "",
          "type": "bytes32"
        }
      ],
      "name": "nodes",
      "outputs": [
        {
          "name": "nonce",
          "type": "bytes32"
        },
        {
          "name": "owner",
          "type": "address"
        },
        {
          "name": "endpoint",
          "type": "string"
        }
      ],
      "payable": false,
      "stateMutability": "view",
      "type": "function"
    },
    {
      "constant": true,
      "inputs": [],
      "name": "contractDirectory",
      "outputs": [
        {
          "name": "",
          "type": "address"
        }
      ],
      "payable": false,
      "stateMutability": "view",
      "type": "function"
    },
    {
      "constant": false,
      "inputs": [
        {
          "name": "newOwner",
          "type": "address"
        }
      ],
      "name": "transferOwnership",
      "outputs": [],
      "payable": false,
      "stateMutability": "nonpayable",
      "type": "function"
    },
    {
      "constant": true,
      "inputs": [
        {
          "name": "",
          "type": "uint256"
        }
      ],
      "name": "nodesIndex",
      "outputs": [
        {
          "name": "",
          "type": "bytes32"
        }
      ],
      "payable": false,
      "stateMutability": "view",
      "type": "function"
    },
    {
      "anonymous": false,
      "inputs": [
        {
          "indexed": false,
          "name": "_owner",
          "type": "address"
        },
        {
          "indexed": false,
          "name": "_nonce",
          "type": "bytes32"
        },
        {
          "indexed": false,
          "name": "_networks",
          "type": "bytes8[]"
        },
        {
          "indexed": false,
          "name": "_endpoint",
          "type": "string"
        }
      ],
      "name": "NodeRegistered",
      "type": "event"
    },
    {
      "anonymous": false,
      "inputs": [
        {
          "indexed": true,
          "name": "previousOwner",
          "type": "address"
        },
        {
          "indexed": true,
          "name": "newOwner",
          "type": "address"
        }
      ],
      "name": "OwnershipTransferred",
      "type": "event"
    },
    {
      "constant": false,
      "inputs": [
        {
          "name": "_networks",
          "type": "bytes8[]"
        },
        {
          "name": "_endpoint",
          "type": "string"
        }
      ],
      "name": "register",
      "outputs": [
        {
          "name": "",
          "type": "bytes32"
        }
      ],
      "payable": false,
      "stateMutability": "nonpayable",
      "type": "function"
    },
    {
      "constant": true,
      "inputs": [
        {
          "name": "_nodeNonce",
          "type": "bytes32"
        }
      ],
      "name": "isNode",
      "outputs": [
        {
          "name": "",
          "type": "bool"
        }
      ],
      "payable": false,
      "stateMutability": "view",
      "type": "function"
    },
    {
      "constant": true,
      "inputs": [
        {
          "name": "_possibleOwner",
          "type": "address"
        },
        {
          "name": "_nodeNonce",
          "type": "bytes32"
        }
      ],
      "name": "isOwner",
      "outputs": [
        {
          "name": "",
          "type": "bool"
        }
      ],
      "payable": false,
      "stateMutability": "view",
      "type": "function"
    },
    {
      "constant": true,
      "inputs": [
        {
          "name": "_nodeNonce",
          "type": "bytes32"
        }
      ],
      "name": "getNodeOwner",
      "outputs": [
        {
          "name": "",
          "type": "address"
        }
      ],
      "payable": false,
      "stateMutability": "view",
      "type": "function"
    },
    {
      "constant": true,
      "inputs": [
        {
          "name": "_owner",
          "type": "address"
        },
        {
          "name": "_page",
          "type": "uint256"
        }
      ],
      "name": "getOwnerNodes",
      "outputs": [
        {
          "name": "",
          "type": "bytes32[]"
        }
      ],
      "payable": false,
      "stateMutability": "view",
      "type": "function"
    },
    {
      "constant": true,
      "inputs": [
        {
          "name": "_nodeNonce",
          "type": "bytes32"
        }
      ],
      "name": "getNode",
      "outputs": [
        {
          "name": "",
          "type": "bytes32"
        },
        {
          "name": "",
          "type": "address"
        },
        {
          "name": "",
          "type": "bytes8[]"
        },
        {
          "name": "",
          "type": "string"
        }
      ],
      "payable": false,
      "stateMutability": "view",
      "type": "function"
    },
    {
      "constant": true,
      "inputs": [],
      "name": "getNodesIndexLength",
      "outputs": [
        {
          "name": "",
          "type": "uint256"
        }
      ],
      "payable": false,
      "stateMutability": "view",
      "type": "function"
    }
  ],
  "bytecode": "0x6060604052336000806101000a81548173ffffffffffffffffffffffffffffffffffffffff021916908373ffffffffffffffffffffffffffffffffffffffff160217905550611607806100536000396000f3006060604052600436106100db576000357c0100000000000000000000000000000000000000000000000000000000900463ffffffff1680631c09629a146100e057806328546a871461014757806330b3c52a146101de57806350c946fe1461023357806370e83ec51461035d5780638da5cb5b146103bb578063a24fa79114610410578063a752e5b01461044f578063ca53139014610478578063d60acf21146104b1578063d86e697d1461056a578063e96b462a14610669578063efe1c73f146106c7578063f2fde38b1461071c578063f311f58214610755575b600080fd5b34156100eb57600080fd5b610105600480803560001916906020019091905050610794565b604051808273ffffffffffffffffffffffffffffffffffffffff1673ffffffffffffffffffffffffffffffffffffffff16815260200191505060405180910390f35b341561015257600080fd5b610187600480803573ffffffffffffffffffffffffffffffffffffffff169060200190919080359060200190919050506107dc565b6040518080602001828103825283818151815260200191508051906020019060200280838360005b838110156101ca5780820151818401526020810190506101af565b505050509050019250505060405180910390f35b34156101e957600080fd5b6101f161098e565b604051808273ffffffffffffffffffffffffffffffffffffffff1673ffffffffffffffffffffffffffffffffffffffff16815260200191505060405180910390f35b341561023e57600080fd5b6102586004808035600019169060200190919050506109b8565b6040518085600019166000191681526020018473ffffffffffffffffffffffffffffffffffffffff1673ffffffffffffffffffffffffffffffffffffffff1681526020018060200180602001838103835285818151815260200191508051906020019060200280838360005b838110156102df5780820151818401526020810190506102c4565b50505050905001838103825284818151815260200191508051906020019080838360005b8381101561031e578082015181840152602081019050610303565b50505050905090810190601f16801561034b5780820380516001836020036101000a031916815260200191505b50965050505050505060405180910390f35b341561036857600080fd5b61039d600480803573ffffffffffffffffffffffffffffffffffffffff16906020019091908035906020019091905050610bb8565b60405180826000191660001916815260200191505060405180910390f35b34156103c657600080fd5b6103ce610be9565b604051808273ffffffffffffffffffffffffffffffffffffffff1673ffffffffffffffffffffffffffffffffffffffff16815260200191505060405180910390f35b341561041b57600080fd5b610435600480803560001916906020019091905050610c0e565b604051808215151515815260200191505060405180910390f35b341561045a57600080fd5b610462610c44565b6040518082815260200191505060405180910390f35b341561048357600080fd5b6104af600480803573ffffffffffffffffffffffffffffffffffffffff16906020019091905050610c51565b005b34156104bc57600080fd5b61054c60048080359060200190820180359060200190808060200260200160405190810160405280939291908181526020018383602002808284378201915050505050509190803590602001908201803590602001908080601f01602080910402602001604051908101604052809392919081815260200183838082843782019150505050505091905050610cf0565b60405180826000191660001916815260200191505060405180910390f35b341561057557600080fd5b61058f6004808035600019169060200190919050506110d3565b6040518084600019166000191681526020018373ffffffffffffffffffffffffffffffffffffffff1673ffffffffffffffffffffffffffffffffffffffff168152602001806020018281038252838181546001816001161561010002031660029004815260200191508054600181600116156101000203166002900480156106585780601f1061062d57610100808354040283529160200191610658565b820191906000526020600020905b81548152906001019060200180831161063b57829003601f168201915b505094505050505060405180910390f35b341561067457600080fd5b6106ad600480803573ffffffffffffffffffffffffffffffffffffffff169060200190919080356000191690602001909190505061111c565b604051808215151515815260200191505060405180910390f35b34156106d257600080fd5b6106da611193565b604051808273ffffffffffffffffffffffffffffffffffffffff1673ffffffffffffffffffffffffffffffffffffffff16815260200191505060405180910390f35b341561072757600080fd5b610753600480803573ffffffffffffffffffffffffffffffffffffffff169060200190919050506111b9565b005b341561076057600080fd5b610776600480803590602001909190505061130e565b60405180826000191660001916815260200191505060405180910390f35b600060026000836000191660001916815260200190815260200160002060010160009054906101000a900473ffffffffffffffffffffffffffffffffffffffff169050919050565b6107e46113a4565b60006107ee6113a4565b600080600080600360008a73ffffffffffffffffffffffffffffffffffffffff1673ffffffffffffffffffffffffffffffffffffffff168152602001908152602001600020805490509550600a6040518059106108485750595b9080825280602002602001820160405250945060008611801561086b5750600088115b1561097f5761088561087e896001611332565b600a61134b565b9350610892846009611386565b92508584101561097e57600091508390505b8281101561097d578581101561093757600360008a73ffffffffffffffffffffffffffffffffffffffff1673ffffffffffffffffffffffffffffffffffffffff1681526020019081526020016000208181548110151561090057fe5b906000526020600020900154858381518110151561091a57fe5b906020019060200201906000191690816000191681525050610963565b6000600102858381518110151561094a57fe5b9060200190602002019060001916908160001916815250505b61096e826001611386565b915080806001019150506108a4565b5b5b84965050505050505092915050565b6000600160009054906101000a900473ffffffffffffffffffffffffffffffffffffffff16905090565b6000806109c36113b8565b6109cb6113cc565b6002600086600019166000191681526020019081526020016000206000015460026000876000191660001916815260200190815260200160002060010160009054906101000a900473ffffffffffffffffffffffffffffffffffffffff1660026000886000191660001916815260200190815260200160002060020160026000896000191660001916815260200190815260200160002060030181805480602002602001604051908101604052809291908181526020018280548015610b0657602002820191906000526020600020906000905b82829054906101000a900478010000000000000000000000000000000000000000000000000277ffffffffffffffffffffffffffffffffffffffffffffffff191681526020019060080190602082600701049283019260010382029150808411610a9f5790505b50505050509150808054600181600116156101000203166002900480601f016020809104026020016040519081016040528092919081815260200182805460018160011615610100020316600290048015610ba25780601f10610b7757610100808354040283529160200191610ba2565b820191906000526020600020905b815481529060010190602001808311610b8557829003601f168201915b5050505050905093509350935093509193509193565b600360205281600052604060002081815481101515610bd357fe5b9060005260206000209001600091509150505481565b6000809054906101000a900473ffffffffffffffffffffffffffffffffffffffff1681565b60008060010260001916600260008460001916600019168152602001908152602001600020600001546000191614159050919050565b6000600480549050905090565b6000809054906101000a900473ffffffffffffffffffffffffffffffffffffffff1673ffffffffffffffffffffffffffffffffffffffff163373ffffffffffffffffffffffffffffffffffffffff16141515610cac57600080fd5b80600160006101000a81548173ffffffffffffffffffffffffffffffffffffffff021916908373ffffffffffffffffffffffffffffffffffffffff16021790555050565b600080838333600360003373ffffffffffffffffffffffffffffffffffffffff1673ffffffffffffffffffffffffffffffffffffffff1681526020019081526020016000208054905060405180858051906020019060200280838360005b83811015610d69578082015181840152602081019050610d4e565b5050505090500184805190602001908083835b602083101515610da15780518252602082019150602081019050602083039250610d7c565b6001836020036101000a0380198251168184511680821785525050505050509050018373ffffffffffffffffffffffffffffffffffffffff1673ffffffffffffffffffffffffffffffffffffffff166c0100000000000000000000000002815260140182815260200194505050505060405180910390209050608060405190810160405280826000191681526020013373ffffffffffffffffffffffffffffffffffffffff168152602001858152602001848152506002600083600019166000191681526020019081526020016000206000820151816000019060001916905560208201518160010160006101000a81548173ffffffffffffffffffffffffffffffffffffffff021916908373ffffffffffffffffffffffffffffffffffffffff1602179055506040820151816002019080519060200190610ee49291906113e0565b506060820151816003019080519060200190610f019291906114ae565b5090505060048054806001018281610f19919061152e565b916000526020600020900160008390919091509060001916905550600360003373ffffffffffffffffffffffffffffffffffffffff1673ffffffffffffffffffffffffffffffffffffffff1681526020019081526020016000208054806001018281610f85919061152e565b9160005260206000209001600083909190915090600019169055507f3f7a78bcafb741c48de06f34d0603f653954e147540b136a7f27205e576b1de733828686604051808573ffffffffffffffffffffffffffffffffffffffff1673ffffffffffffffffffffffffffffffffffffffff16815260200184600019166000191681526020018060200180602001838103835285818151815260200191508051906020019060200280838360005b8381101561104c578082015181840152602081019050611031565b50505050905001838103825284818151815260200191508051906020019080838360005b8381101561108b578082015181840152602081019050611070565b50505050905090810190601f1680156110b85780820380516001836020036101000a031916815260200191505b50965050505050505060405180910390a18091505092915050565b60026020528060005260406000206000915090508060000154908060010160009054906101000a900473ffffffffffffffffffffffffffffffffffffffff169080600301905083565b60008273ffffffffffffffffffffffffffffffffffffffff1660026000846000191660001916815260200190815260200160002060010160009054906101000a900473ffffffffffffffffffffffffffffffffffffffff1673ffffffffffffffffffffffffffffffffffffffff1614905092915050565b600160009054906101000a900473ffffffffffffffffffffffffffffffffffffffff1681565b6000809054906101000a900473ffffffffffffffffffffffffffffffffffffffff1673ffffffffffffffffffffffffffffffffffffffff163373ffffffffffffffffffffffffffffffffffffffff1614151561121457600080fd5b600073ffffffffffffffffffffffffffffffffffffffff168173ffffffffffffffffffffffffffffffffffffffff161415151561125057600080fd5b8073ffffffffffffffffffffffffffffffffffffffff166000809054906101000a900473ffffffffffffffffffffffffffffffffffffffff1673ffffffffffffffffffffffffffffffffffffffff167f8be0079c531659141344cd1fd0a4f28419497f9722a3daafe3b4186f6b6457e060405160405180910390a3806000806101000a81548173ffffffffffffffffffffffffffffffffffffffff021916908373ffffffffffffffffffffffffffffffffffffffff16021790555050565b60048181548110151561131d57fe5b90600052602060002090016000915090505481565b600082821115151561134057fe5b818303905092915050565b6000806000841415611360576000915061137f565b828402905082848281151561137157fe5b0414151561137b57fe5b8091505b5092915050565b600080828401905083811015151561139a57fe5b8091505092915050565b602060405190810160405280600081525090565b602060405190810160405280600081525090565b602060405190810160405280600081525090565b8280548282559060005260206000209060030160049004810192821561149d5791602002820160005b8382111561146757835183826101000a81548167ffffffffffffffff02191690837801000000000000000000000000000000000000000000000000900402179055509260200192600801602081600701049283019260010302611409565b801561149b5782816101000a81549067ffffffffffffffff0219169055600801602081600701049283019260010302611467565b505b5090506114aa919061155a565b5090565b828054600181600116156101000203166002900490600052602060002090601f016020900481019282601f106114ef57805160ff191683800117855561151d565b8280016001018555821561151d579182015b8281111561151c578251825591602001919060010190611501565b5b50905061152a9190611591565b5090565b8154818355818115116115555781836000526020600020918201910161155491906115b6565b5b505050565b61158e91905b8082111561158a57600081816101000a81549067ffffffffffffffff021916905550600101611560565b5090565b90565b6115b391905b808211156115af576000816000905550600101611597565b5090565b90565b6115d891905b808211156115d45760008160009055506001016115bc565b5090565b905600a165627a7a72305820ad856d7e533461882bc49c7007d56d37dd74a5efd4a631638f5587894ee57aed0029",
  "source": "pragma solidity ^0.4.18;\n\nimport \"./BaseAPI.sol\";\nimport \"../interfaces/NodeRegistry.sol\";\nimport \"zeppelin-solidity/contracts/math/SafeMath.sol\";\n\ncontract NodeRegistryAPI is BaseAPI, NodeRegistry {\n    // Events\n    event NodeRegistered(address _owner, bytes32 _nonce, bytes8[] _networks, string _endpoint);\n\n    // Functions\n    /*\n     * @dev allows to register a new Node, returning a bytes32 nonce for the Node, if it doesn't exist already, in which case it will error out.\n     * @param bytes8[] _networks - List of networks this Node supports (BTC, ETH, etc.).\n     * @param string _endpoint - The endpoint information in multi addr format.\n     */\n    function register(bytes8[] _networks, string _endpoint) public returns(bytes32) {\n        bytes32 nodeNonce = keccak256(_networks, _endpoint, msg.sender, nodesPerAccount[msg.sender].length);\n        nodes[nodeNonce] = Models.Node(nodeNonce, msg.sender, _networks, _endpoint);\n        nodesIndex.push(nodeNonce);\n        nodesPerAccount[msg.sender].push(nodeNonce);\n        NodeRegistered(msg.sender, nodeNonce, _networks, _endpoint);\n        return nodeNonce;\n    }\n\n    /*\n     * @dev Verify existence of a given Node nonce\n     * @param bytes32 _nodeNonce - Nonce to verify against.\n     */\n    function isNode(bytes32 _nodeNonce) public view returns(bool) {\n        return nodes[_nodeNonce].nonce != bytes32(0);\n    }\n\n    /*\n     * @dev Verify ownership of a given Node.\n     * @param address _possibleOwner - The possible owner of the given node we want to verify\n     * @param bytes32 _nodeNonce - The nonce of the Node we want to verify\n     */\n    function isOwner(address _possibleOwner, bytes32 _nodeNonce) public view returns(bool) {\n        return nodes[_nodeNonce].owner == _possibleOwner;\n    }\n\n    /*\n     * @dev Returns the owner of the node\n     * @param bytes32 _nodeNonce\n     */\n    function getNodeOwner(bytes32 _nodeNonce) public view returns(address) {\n        return nodes[_nodeNonce].owner;\n    }\n\n    /*\n     * @dev Returns a paginated list of the nodes owned by the account\n     * @param address _owner\n     * @param uint256 _page\n     */\n    function getOwnerNodes(address _owner, uint256 _page) public view returns (bytes32[]) {\n        uint256 totalNodes = uint256(nodesPerAccount[_owner].length);\n        bytes32[] memory result = new bytes32[](10);\n        if(totalNodes > 0 && _page > 0){\n            uint256 initialIndex = SafeMath.mul(uint256(SafeMath.sub(_page, 1)), 10);\n            uint256 lastIndex = SafeMath.add(initialIndex, 9);\n            if(initialIndex < totalNodes) {\n                uint256 resultIndex = 0;\n                for(uint256 i = initialIndex; i < lastIndex; i++){\n                    if(i < totalNodes){\n                        result[resultIndex] = bytes32(nodesPerAccount[_owner][i]);\n                    } else {\n                        result[resultIndex] = bytes32(0);\n                    }\n                    resultIndex = SafeMath.add(resultIndex, 1);\n                }\n            }\n        }\n        return result;\n    }\n\n    /*\n     * @dev Returns the Node information given the nonce\n     * @param bytes32 _nodeNonce\n     */\n    function getNode(bytes32 _nodeNonce) public view returns (bytes32, address, bytes8[], string) {\n        return(nodes[_nodeNonce].nonce, nodes[_nodeNonce].owner, nodes[_nodeNonce].networks, nodes[_nodeNonce].endpoint);\n    }\n\n    /*\n     * @dev Returns the length of the nodesIndex array\n     */\n    function getNodesIndexLength() public view returns (uint256) {\n        return nodesIndex.length;\n    }\n}\n",
  "sourcePath": "/Users/luyzdeleon/current_projects/pocket-core/contracts/api/NodeRegistryAPI.sol",
  "compiler": {
    "name": "solc",
    "version": "0.4.19+commit.c4cbbb05.Emscripten.clang"
  },
  "schemaVersion": "2.0.0",
  "updatedAt": "2018-04-04T22:46:18.745Z"
}